{
  "contractName": "WrappedErc1155",
  "abi": [
    {
      "inputs": [
        {
          "internalType": "string",
          "name": "name_",
          "type": "string"
        },
        {
          "internalType": "string",
          "name": "symbol_",
          "type": "string"
        },
        {
          "internalType": "string",
          "name": "baseUri_",
          "type": "string"
        },
        {
          "internalType": "address",
          "name": "owner_",
          "type": "address"
        },
        {
          "internalType": "address",
          "name": "admin_",
          "type": "address"
        },
        {
          "internalType": "address",
          "name": "worker_",
          "type": "address"
        }
      ],
      "stateMutability": "nonpayable",
      "type": "constructor"
    },
    {
      "anonymous": false,
      "inputs": [
        {
          "indexed": true,
          "internalType": "address",
          "name": "account",
          "type": "address"
        },
        {
          "indexed": true,
          "internalType": "address",
          "name": "operator",
          "type": "address"
        },
        {
          "indexed": false,
          "internalType": "bool",
          "name": "approved",
          "type": "bool"
        }
      ],
      "name": "ApprovalForAll",
      "type": "event"
    },
    {
      "anonymous": false,
      "inputs": [
        {
          "indexed": true,
          "internalType": "bytes32",
          "name": "role",
          "type": "bytes32"
        },
        {
          "indexed": true,
          "internalType": "bytes32",
          "name": "previousAdminRole",
          "type": "bytes32"
        },
        {
          "indexed": true,
          "internalType": "bytes32",
          "name": "newAdminRole",
          "type": "bytes32"
        }
      ],
      "name": "RoleAdminChanged",
      "type": "event"
    },
    {
      "anonymous": false,
      "inputs": [
        {
          "indexed": true,
          "internalType": "bytes32",
          "name": "role",
          "type": "bytes32"
        },
        {
          "indexed": true,
          "internalType": "address",
          "name": "account",
          "type": "address"
        },
        {
          "indexed": true,
          "internalType": "address",
          "name": "sender",
          "type": "address"
        }
      ],
      "name": "RoleGranted",
      "type": "event"
    },
    {
      "anonymous": false,
      "inputs": [
        {
          "indexed": true,
          "internalType": "bytes32",
          "name": "role",
          "type": "bytes32"
        },
        {
          "indexed": true,
          "internalType": "address",
          "name": "account",
          "type": "address"
        },
        {
          "indexed": true,
          "internalType": "address",
          "name": "sender",
          "type": "address"
        }
      ],
      "name": "RoleRevoked",
      "type": "event"
    },
    {
      "anonymous": false,
      "inputs": [
        {
          "indexed": true,
          "internalType": "address",
          "name": "operator",
          "type": "address"
        },
        {
          "indexed": true,
          "internalType": "address",
          "name": "from",
          "type": "address"
        },
        {
          "indexed": true,
          "internalType": "address",
          "name": "to",
          "type": "address"
        },
        {
          "indexed": false,
          "internalType": "uint256[]",
          "name": "ids",
          "type": "uint256[]"
        },
        {
          "indexed": false,
          "internalType": "uint256[]",
          "name": "values",
          "type": "uint256[]"
        }
      ],
      "name": "TransferBatch",
      "type": "event"
    },
    {
      "anonymous": false,
      "inputs": [
        {
          "indexed": true,
          "internalType": "address",
          "name": "operator",
          "type": "address"
        },
        {
          "indexed": true,
          "internalType": "address",
          "name": "from",
          "type": "address"
        },
        {
          "indexed": true,
          "internalType": "address",
          "name": "to",
          "type": "address"
        },
        {
          "indexed": false,
          "internalType": "uint256",
          "name": "id",
          "type": "uint256"
        },
        {
          "indexed": false,
          "internalType": "uint256",
          "name": "value",
          "type": "uint256"
        }
      ],
      "name": "TransferSingle",
      "type": "event"
    },
    {
      "anonymous": false,
      "inputs": [
        {
          "indexed": false,
          "internalType": "string",
          "name": "value",
          "type": "string"
        },
        {
          "indexed": true,
          "internalType": "uint256",
          "name": "id",
          "type": "uint256"
        }
      ],
      "name": "URI",
      "type": "event"
    },
    {
      "inputs": [],
      "name": "ADMIN_ROLE",
      "outputs": [
        {
          "internalType": "bytes32",
          "name": "",
          "type": "bytes32"
        }
      ],
      "stateMutability": "view",
      "type": "function"
    },
    {
      "inputs": [],
      "name": "DEFAULT_ADMIN_ROLE",
      "outputs": [
        {
          "internalType": "bytes32",
          "name": "",
          "type": "bytes32"
        }
      ],
      "stateMutability": "view",
      "type": "function"
    },
    {
      "inputs": [],
      "name": "WORKER_ROLE",
      "outputs": [
        {
          "internalType": "bytes32",
          "name": "",
          "type": "bytes32"
        }
      ],
      "stateMutability": "view",
      "type": "function"
    },
    {
      "inputs": [
        {
          "internalType": "address",
          "name": "account",
          "type": "address"
        },
        {
          "internalType": "uint256",
          "name": "id",
          "type": "uint256"
        }
      ],
      "name": "balanceOf",
      "outputs": [
        {
          "internalType": "uint256",
          "name": "",
          "type": "uint256"
        }
      ],
      "stateMutability": "view",
      "type": "function"
    },
    {
      "inputs": [
        {
          "internalType": "address[]",
          "name": "accounts",
          "type": "address[]"
        },
        {
          "internalType": "uint256[]",
          "name": "ids",
          "type": "uint256[]"
        }
      ],
      "name": "balanceOfBatch",
      "outputs": [
        {
          "internalType": "uint256[]",
          "name": "",
          "type": "uint256[]"
        }
      ],
      "stateMutability": "view",
      "type": "function"
    },
    {
      "inputs": [
        {
          "internalType": "address",
          "name": "account",
          "type": "address"
        },
        {
          "internalType": "uint256",
          "name": "id",
          "type": "uint256"
        },
        {
          "internalType": "uint256",
          "name": "value",
          "type": "uint256"
        }
      ],
      "name": "burn",
      "outputs": [],
      "stateMutability": "nonpayable",
      "type": "function"
    },
    {
      "inputs": [
        {
          "internalType": "bytes32",
          "name": "role",
          "type": "bytes32"
        }
      ],
      "name": "getRoleAdmin",
      "outputs": [
        {
          "internalType": "bytes32",
          "name": "",
          "type": "bytes32"
        }
      ],
      "stateMutability": "view",
      "type": "function"
    },
    {
      "inputs": [
        {
          "internalType": "bytes32",
          "name": "role",
          "type": "bytes32"
        },
        {
          "internalType": "uint256",
          "name": "index",
          "type": "uint256"
        }
      ],
      "name": "getRoleMember",
      "outputs": [
        {
          "internalType": "address",
          "name": "",
          "type": "address"
        }
      ],
      "stateMutability": "view",
      "type": "function"
    },
    {
      "inputs": [
        {
          "internalType": "bytes32",
          "name": "role",
          "type": "bytes32"
        }
      ],
      "name": "getRoleMemberCount",
      "outputs": [
        {
          "internalType": "uint256",
          "name": "",
          "type": "uint256"
        }
      ],
      "stateMutability": "view",
      "type": "function"
    },
    {
      "inputs": [
        {
          "internalType": "bytes32",
          "name": "role",
          "type": "bytes32"
        },
        {
          "internalType": "address",
          "name": "account",
          "type": "address"
        }
      ],
      "name": "grantRole",
      "outputs": [],
      "stateMutability": "nonpayable",
      "type": "function"
    },
    {
      "inputs": [
        {
          "internalType": "bytes32",
          "name": "role",
          "type": "bytes32"
        },
        {
          "internalType": "address",
          "name": "account",
          "type": "address"
        }
      ],
      "name": "hasRole",
      "outputs": [
        {
          "internalType": "bool",
          "name": "",
          "type": "bool"
        }
      ],
      "stateMutability": "view",
      "type": "function"
    },
    {
      "inputs": [
        {
          "internalType": "address",
          "name": "account",
          "type": "address"
        },
        {
          "internalType": "address",
          "name": "operator",
          "type": "address"
        }
      ],
      "name": "isApprovedForAll",
      "outputs": [
        {
          "internalType": "bool",
          "name": "",
          "type": "bool"
        }
      ],
      "stateMutability": "view",
      "type": "function"
    },
    {
      "inputs": [
        {
          "internalType": "bytes32",
          "name": "role",
          "type": "bytes32"
        },
        {
          "internalType": "address",
          "name": "account",
          "type": "address"
        }
      ],
      "name": "renounceRole",
      "outputs": [],
      "stateMutability": "nonpayable",
      "type": "function"
    },
    {
      "inputs": [
        {
          "internalType": "bytes32",
          "name": "role",
          "type": "bytes32"
        },
        {
          "internalType": "address",
          "name": "account",
          "type": "address"
        }
      ],
      "name": "revokeRole",
      "outputs": [],
      "stateMutability": "nonpayable",
      "type": "function"
    },
    {
      "inputs": [
        {
          "internalType": "address",
          "name": "from",
          "type": "address"
        },
        {
          "internalType": "address",
          "name": "to",
          "type": "address"
        },
        {
          "internalType": "uint256[]",
          "name": "ids",
          "type": "uint256[]"
        },
        {
          "internalType": "uint256[]",
          "name": "amounts",
          "type": "uint256[]"
        },
        {
          "internalType": "bytes",
          "name": "data",
          "type": "bytes"
        }
      ],
      "name": "safeBatchTransferFrom",
      "outputs": [],
      "stateMutability": "nonpayable",
      "type": "function"
    },
    {
      "inputs": [
        {
          "internalType": "address",
          "name": "from",
          "type": "address"
        },
        {
          "internalType": "address",
          "name": "to",
          "type": "address"
        },
        {
          "internalType": "uint256",
          "name": "id",
          "type": "uint256"
        },
        {
          "internalType": "uint256",
          "name": "amount",
          "type": "uint256"
        },
        {
          "internalType": "bytes",
          "name": "data",
          "type": "bytes"
        }
      ],
      "name": "safeTransferFrom",
      "outputs": [],
      "stateMutability": "nonpayable",
      "type": "function"
    },
    {
      "inputs": [
        {
          "internalType": "address",
          "name": "operator",
          "type": "address"
        },
        {
          "internalType": "bool",
          "name": "approved",
          "type": "bool"
        }
      ],
      "name": "setApprovalForAll",
      "outputs": [],
      "stateMutability": "nonpayable",
      "type": "function"
    },
    {
      "inputs": [
        {
          "internalType": "bytes4",
          "name": "interfaceId",
          "type": "bytes4"
        }
      ],
      "name": "supportsInterface",
      "outputs": [
        {
          "internalType": "bool",
          "name": "",
          "type": "bool"
        }
      ],
      "stateMutability": "view",
      "type": "function"
    },
    {
      "inputs": [
        {
          "internalType": "uint256",
          "name": "",
          "type": "uint256"
        }
      ],
      "name": "uri",
      "outputs": [
        {
          "internalType": "string",
          "name": "",
          "type": "string"
        }
      ],
      "stateMutability": "view",
      "type": "function"
    },
    {
      "inputs": [],
      "name": "name",
      "outputs": [
        {
          "internalType": "string",
          "name": "",
          "type": "string"
        }
      ],
      "stateMutability": "view",
      "type": "function"
    },
    {
      "inputs": [],
      "name": "symbol",
      "outputs": [
        {
          "internalType": "string",
          "name": "",
          "type": "string"
        }
      ],
      "stateMutability": "view",
      "type": "function"
    },
    {
      "inputs": [
        {
          "internalType": "string",
          "name": "name_",
          "type": "string"
        },
        {
          "internalType": "string",
          "name": "symbol_",
          "type": "string"
        }
      ],
      "name": "update",
      "outputs": [],
      "stateMutability": "nonpayable",
      "type": "function"
    },
    {
      "inputs": [
        {
          "internalType": "string",
          "name": "newuri_",
          "type": "string"
        }
      ],
      "name": "setURI",
      "outputs": [],
      "stateMutability": "nonpayable",
      "type": "function"
    },
    {
      "inputs": [
        {
          "internalType": "address",
          "name": "newOwner_",
          "type": "address"
        }
      ],
      "name": "transferOwner",
      "outputs": [],
      "stateMutability": "nonpayable",
      "type": "function"
    },
    {
      "inputs": [
        {
          "internalType": "address",
          "name": "account_",
          "type": "address"
        },
        {
          "internalType": "uint256[]",
          "name": "tokenID_",
          "type": "uint256[]"
        },
        {
          "internalType": "uint256[]",
          "name": "amount_",
          "type": "uint256[]"
        },
        {
          "internalType": "bytes",
          "name": "data_",
          "type": "bytes"
        }
      ],
      "name": "mintBatch",
      "outputs": [],
      "stateMutability": "nonpayable",
      "type": "function"
    },
    {
      "inputs": [
        {
          "internalType": "address",
          "name": "account_",
          "type": "address"
        },
        {
          "internalType": "uint256[]",
          "name": "tokenID_",
          "type": "uint256[]"
        },
        {
          "internalType": "uint256[]",
          "name": "amount_",
          "type": "uint256[]"
        }
      ],
      "name": "burnBatch",
      "outputs": [],
      "stateMutability": "nonpayable",
      "type": "function"
    }
  ],
  "bytecode": "0x60806040523480156200001157600080fd5b50604051620049fa380380620049fa833981810160405260c08110156200003757600080fd5b81019080805160405193929190846401000000008211156200005857600080fd5b838201915060208201858111156200006f57600080fd5b82518660018202830111640100000000821117156200008d57600080fd5b8083526020830192505050908051906020019080838360005b83811015620000c3578082015181840152602081019050620000a6565b50505050905090810190601f168015620000f15780820380516001836020036101000a031916815260200191505b50604052602001805160405193929190846401000000008211156200011557600080fd5b838201915060208201858111156200012c57600080fd5b82518660018202830111640100000000821117156200014a57600080fd5b8083526020830192505050908051906020019080838360005b838110156200018057808201518184015260208101905062000163565b50505050905090810190601f168015620001ae5780820380516001836020036101000a031916815260200191505b5060405260200180516040519392919084640100000000821115620001d257600080fd5b83820191506020820185811115620001e957600080fd5b82518660018202830111640100000000821117156200020757600080fd5b8083526020830192505050908051906020019080838360005b838110156200023d57808201518184015260208101905062000220565b50505050905090810190601f1680156200026b5780820380516001836020036101000a031916815260200191505b5060405260200180519060200190929190805190602001909291908051906020019092919050505083620002d16301ffc9a77c01000000000000000000000000000000000000000000000000000000000262000494640100000000026401000000009004565b620002eb81620005b9640100000000026401000000009004565b6200032863d9b67a267c01000000000000000000000000000000000000000000000000000000000262000494640100000000026401000000009004565b62000365630e89341c7c01000000000000000000000000000000000000000000000000000000000262000494640100000000026401000000009004565b5085600590805190602001906200037e929190620007fd565b50846006908051906020019062000397929190620007fd565b50620003b7600060010284620005d5640100000000026401000000009004565b620003f27fa49807205ce4d355092ef5a8a18f56e8913cf4a201fbe287825b095693c2177583620005d5640100000000026401000000009004565b6200042d7ff1b411d6abb365480ac902cc153c45e9ded5847a2265ce6d01945d253edb6bc782620005d5640100000000026401000000009004565b620004887ff1b411d6abb365480ac902cc153c45e9ded5847a2265ce6d01945d253edb6bc77fa49807205ce4d355092ef5a8a18f56e8913cf4a201fbe287825b095693c21775620005f4640100000000026401000000009004565b505050505050620008a3565b63ffffffff7c010000000000000000000000000000000000000000000000000000000002817bffffffffffffffffffffffffffffffffffffffffffffffffffffffff191614156200054d576040517f08c379a000000000000000000000000000000000000000000000000000000000815260040180806020018281038252601c8152602001807f4552433136353a20696e76616c696420696e746572666163652069640000000081525060200191505060405180910390fd5b6001600080837bffffffffffffffffffffffffffffffffffffffffffffffffffffffff19167bffffffffffffffffffffffffffffffffffffffffffffffffffffffff1916815260200190815260200160002060006101000a81548160ff02191690831515021790555050565b8060039080519060200190620005d1929190620007fd565b5050565b620005f0828262000658640100000000026401000000009004565b5050565b806004600084815260200190815260200160002060020154837fbd79b86ffe0ab8e8776151514217cd7cacd52c909f66475c3af44e129f0b00ff60405160405180910390a48060046000848152602001908152602001600020600201819055505050565b6200069081600460008581526020019081526020016000206000016200070e6401000000000262002748179091906401000000009004565b156200070a57620006af6200074f640100000000026401000000009004565b73ffffffffffffffffffffffffffffffffffffffff168173ffffffffffffffffffffffffffffffffffffffff16837f2f8788117e7eff1d82e926ec794901d17c78024a50270940304540a733656f0d60405160405180910390a45b5050565b600062000747836000018373ffffffffffffffffffffffffffffffffffffffff1660010262000757640100000000026401000000009004565b905092915050565b600033905090565b6000620007748383620007da640100000000026401000000009004565b620007cf578260000182908060018154018082558091505060019003906000526020600020016000909190919091505582600001805490508360010160008481526020019081526020016000208190555060019050620007d4565b600090505b92915050565b600080836001016000848152602001908152602001600020541415905092915050565b828054600181600116156101000203166002900490600052602060002090601f016020900481019282601f106200084057805160ff191683800117855562000871565b8280016001018555821562000871579182015b828111156200087057825182559160200191906001019062000853565b5b50905062000880919062000884565b5090565b5b808211156200089f57600081600090555060010162000885565b5090565b61414780620008b36000396000f3fe608060405234801561001057600080fd5b50600436106101aa576000357c0100000000000000000000000000000000000000000000000000000000900480636b20c454116100fb578063a22cb465116100b4578063e985e9c51161008e578063e985e9c514610f31578063f242432a14610fab578063f4c84d19146110ba578063f5298aca1461120c576101aa565b8063a22cb46514610e51578063ca15c87314610ea1578063d547741f14610ee3576101aa565b80636b20c45414610b6057806375b238fc14610ccc5780639010d07c14610cea57806391d1485414610d4c57806395d89b4114610db0578063a217fddf14610e33576101aa565b8063248a9ca31161016857806336568abe1161014257806336568abe1461090f5780634e1273f41461095d5780634fb2e45d14610afe578063634252dc14610b42576101aa565b8063248a9ca31461065c5780632eb2c2d61461069e5780632f2ff15d146108c1576101aa565b8062fdd58e146101af57806301ffc9a71461021157806302fe53051461027457806306fdde031461032f5780630e89341c146103b25780631f7fdffa14610459575b600080fd5b6101fb600480360360408110156101c557600080fd5b81019080803573ffffffffffffffffffffffffffffffffffffffff16906020019092919080359060200190929190505050611264565b6040518082815260200191505060405180910390f35b61025c6004803603602081101561022757600080fd5b8101908080357bffffffffffffffffffffffffffffffffffffffffffffffffffffffff19169060200190929190505050611344565b60405180821515815260200191505060405180910390f35b61032d6004803603602081101561028a57600080fd5b81019080803590602001906401000000008111156102a757600080fd5b8201836020820111156102b957600080fd5b803590602001918460018302840111640100000000831117156102db57600080fd5b91908080601f016020809104026020016040519081016040528093929190818152602001838380828437600081840152601f19601f8201169050808301925050505050505091929192905050506113ab565b005b610337611453565b6040518080602001828103825283818151815260200191508051906020019080838360005b8381101561037757808201518184015260208101905061035c565b50505050905090810190601f1680156103a45780820380516001836020036101000a031916815260200191505b509250505060405180910390f35b6103de600480360360208110156103c857600080fd5b81019080803590602001909291905050506114f5565b6040518080602001828103825283818151815260200191508051906020019080838360005b8381101561041e578082015181840152602081019050610403565b50505050905090810190601f16801561044b5780820380516001836020036101000a031916815260200191505b509250505060405180910390f35b61065a6004803603608081101561046f57600080fd5b81019080803573ffffffffffffffffffffffffffffffffffffffff169060200190929190803590602001906401000000008111156104ac57600080fd5b8201836020820111156104be57600080fd5b803590602001918460208302840111640100000000831117156104e057600080fd5b919080806020026020016040519081016040528093929190818152602001838360200280828437600081840152601f19601f8201169050808301925050505050505091929192908035906020019064010000000081111561054057600080fd5b82018360208201111561055257600080fd5b8035906020019184602083028401116401000000008311171561057457600080fd5b919080806020026020016040519081016040528093929190818152602001838360200280828437600081840152601f19601f820116905080830192505050505050509192919290803590602001906401000000008111156105d457600080fd5b8201836020820111156105e657600080fd5b8035906020019184600183028401116401000000008311171561060857600080fd5b91908080601f016020809104026020016040519081016040528093929190818152602001838380828437600081840152601f19601f820116905080830192505050505050509192919290505050611599565b005b6106886004803603602081101561067257600080fd5b810190808035906020019092919050505061162b565b6040518082815260200191505060405180910390f35b6108bf600480360360a08110156106b457600080fd5b81019080803573ffffffffffffffffffffffffffffffffffffffff169060200190929190803573ffffffffffffffffffffffffffffffffffffffff1690602001909291908035906020019064010000000081111561071157600080fd5b82018360208201111561072357600080fd5b8035906020019184602083028401116401000000008311171561074557600080fd5b919080806020026020016040519081016040528093929190818152602001838360200280828437600081840152601f19601f820116905080830192505050505050509192919290803590602001906401000000008111156107a557600080fd5b8201836020820111156107b757600080fd5b803590602001918460208302840111640100000000831117156107d957600080fd5b919080806020026020016040519081016040528093929190818152602001838360200280828437600081840152601f19601f8201169050808301925050505050505091929192908035906020019064010000000081111561083957600080fd5b82018360208201111561084b57600080fd5b8035906020019184600183028401116401000000008311171561086d57600080fd5b91908080601f016020809104026020016040519081016040528093929190818152602001838380828437600081840152601f19601f82011690508083019250505050505050919291929050505061164b565b005b61090d600480360360408110156108d757600080fd5b8101908080359060200190929190803573ffffffffffffffffffffffffffffffffffffffff169060200190929190505050611ad6565b005b61095b6004803603604081101561092557600080fd5b8101908080359060200190929190803573ffffffffffffffffffffffffffffffffffffffff169060200190929190505050611b60565b005b610aa76004803603604081101561097357600080fd5b810190808035906020019064010000000081111561099057600080fd5b8201836020820111156109a257600080fd5b803590602001918460208302840111640100000000831117156109c457600080fd5b919080806020026020016040519081016040528093929190818152602001838360200280828437600081840152601f19601f82011690508083019250505050505050919291929080359060200190640100000000811115610a2457600080fd5b820183602082011115610a3657600080fd5b80359060200191846020830284011164010000000083111715610a5857600080fd5b919080806020026020016040519081016040528093929190818152602001838360200280828437600081840152601f19601f820116905080830192505050505050509192919290505050611bf9565b6040518080602001828103825283818151815260200191508051906020019060200280838360005b83811015610aea578082015181840152602081019050610acf565b505050509050019250505060405180910390f35b610b4060048036036020811015610b1457600080fd5b81019080803573ffffffffffffffffffffffffffffffffffffffff169060200190929190505050611d0b565b005b610b4a611daa565b6040518082815260200191505060405180910390f35b610cca60048036036060811015610b7657600080fd5b81019080803573ffffffffffffffffffffffffffffffffffffffff16906020019092919080359060200190640100000000811115610bb357600080fd5b820183602082011115610bc557600080fd5b80359060200191846020830284011164010000000083111715610be757600080fd5b919080806020026020016040519081016040528093929190818152602001838360200280828437600081840152601f19601f82011690508083019250505050505050919291929080359060200190640100000000811115610c4757600080fd5b820183602082011115610c5957600080fd5b80359060200191846020830284011164010000000083111715610c7b57600080fd5b919080806020026020016040519081016040528093929190818152602001838360200280828437600081840152601f19601f820116905080830192505050505050509192919290505050611dce565b005b610cd4611e5e565b6040518082815260200191505060405180910390f35b610d2060048036036040811015610d0057600080fd5b810190808035906020019092919080359060200190929190505050611e82565b604051808273ffffffffffffffffffffffffffffffffffffffff16815260200191505060405180910390f35b610d9860048036036040811015610d6257600080fd5b8101908080359060200190929190803573ffffffffffffffffffffffffffffffffffffffff169060200190929190505050611eb4565b60405180821515815260200191505060405180910390f35b610db8611ee6565b6040518080602001828103825283818151815260200191508051906020019080838360005b83811015610df8578082015181840152602081019050610ddd565b50505050905090810190601f168015610e255780820380516001836020036101000a031916815260200191505b509250505060405180910390f35b610e3b611f88565b6040518082815260200191505060405180910390f35b610e9f60048036036040811015610e6757600080fd5b81019080803573ffffffffffffffffffffffffffffffffffffffff169060200190929190803515159060200190929190505050611f90565b005b610ecd60048036036020811015610eb757600080fd5b8101908080359060200190929190505050612129565b6040518082815260200191505060405180910390f35b610f2f60048036036040811015610ef957600080fd5b8101908080359060200190929190803573ffffffffffffffffffffffffffffffffffffffff169060200190929190505050612150565b005b610f9360048036036040811015610f4757600080fd5b81019080803573ffffffffffffffffffffffffffffffffffffffff169060200190929190803573ffffffffffffffffffffffffffffffffffffffff1690602001909291905050506121da565b60405180821515815260200191505060405180910390f35b6110b8600480360360a0811015610fc157600080fd5b81019080803573ffffffffffffffffffffffffffffffffffffffff169060200190929190803573ffffffffffffffffffffffffffffffffffffffff16906020019092919080359060200190929190803590602001909291908035906020019064010000000081111561103257600080fd5b82018360208201111561104457600080fd5b8035906020019184600183028401116401000000008311171561106657600080fd5b91908080601f016020809104026020016040519081016040528093929190818152602001838380828437600081840152601f19601f82011690508083019250505050505050919291929050505061226e565b005b61120a600480360360408110156110d057600080fd5b81019080803590602001906401000000008111156110ed57600080fd5b8201836020820111156110ff57600080fd5b8035906020019184600183028401116401000000008311171561112157600080fd5b91908080601f016020809104026020016040519081016040528093929190818152602001838380828437600081840152601f19601f8201169050808301925050505050505091929192908035906020019064010000000081111561118457600080fd5b82018360208201111561119657600080fd5b803590602001918460018302840111640100000000831117156111b857600080fd5b91908080601f016020809104026020016040519081016040528093929190818152602001838380828437600081840152601f19601f8201169050808301925050505050505091929192905050506125e3565b005b6112626004803603606081101561122257600080fd5b81019080803573ffffffffffffffffffffffffffffffffffffffff1690602001909291908035906020019092919080359060200190929190505050612695565b005b60008073ffffffffffffffffffffffffffffffffffffffff168373ffffffffffffffffffffffffffffffffffffffff1614156112eb576040517f08c379a000000000000000000000000000000000000000000000000000000000815260040180806020018281038252602b815260200180613efc602b913960400191505060405180910390fd5b6001600083815260200190815260200160002060008473ffffffffffffffffffffffffffffffffffffffff1673ffffffffffffffffffffffffffffffffffffffff16815260200190815260200160002054905092915050565b6000806000837bffffffffffffffffffffffffffffffffffffffffffffffffffffffff19167bffffffffffffffffffffffffffffffffffffffffffffffffffffffff1916815260200190815260200160002060009054906101000a900460ff169050919050565b6113d57ff1b411d6abb365480ac902cc153c45e9ded5847a2265ce6d01945d253edb6bc733611eb4565b611447576040517f08c379a00000000000000000000000000000000000000000000000000000000081526004018080602001828103825260208152602001807f4f776e61626c653a2063616c6c6572206973206e6f7420746865206f776e657281525060200191505060405180910390fd5b61145081612778565b50565b606060058054600181600116156101000203166002900480601f0160208091040260200160405190810160405280929190818152602001828054600181600116156101000203166002900480156114eb5780601f106114c0576101008083540402835291602001916114eb565b820191906000526020600020905b8154815290600101906020018083116114ce57829003601f168201915b5050505050905090565b606060038054600181600116156101000203166002900480601f01602080910402602001604051908101604052809291908181526020018280546001816001161561010002031660029004801561158d5780601f106115625761010080835404028352916020019161158d565b820191906000526020600020905b81548152906001019060200180831161157057829003601f168201915b50505050509050919050565b6115a7600060010233611eb4565b611619576040517f08c379a00000000000000000000000000000000000000000000000000000000081526004018080602001828103825260208152602001807f4f776e61626c653a2063616c6c6572206973206e6f7420746865206f776e657281525060200191505060405180910390fd5b61162584848484612792565b50505050565b600060046000838152602001908152602001600020600201549050919050565b81518351146116a5576040517f08c379a000000000000000000000000000000000000000000000000000000000815260040180806020018281038252602881526020018061409a6028913960400191505060405180910390fd5b600073ffffffffffffffffffffffffffffffffffffffff168473ffffffffffffffffffffffffffffffffffffffff16141561172b576040517f08c379a0000000000000000000000000000000000000000000000000000000008152600401808060200182810382526025815260200180613fa46025913960400191505060405180910390fd5b611733612ab4565b73ffffffffffffffffffffffffffffffffffffffff168573ffffffffffffffffffffffffffffffffffffffff161480611779575061177885611773612ab4565b6121da565b5b6117ce576040517f08c379a0000000000000000000000000000000000000000000000000000000008152600401808060200182810382526032815260200180613fc96032913960400191505060405180910390fd5b60006117d8612ab4565b90506117e8818787878787612abc565b60005b84518110156119b957600085828151811061180257fe5b60200260200101519050600085838151811061181a57fe5b602002602001015190506118a1816040518060600160405280602a815260200161401e602a91396001600086815260200190815260200160002060008d73ffffffffffffffffffffffffffffffffffffffff1673ffffffffffffffffffffffffffffffffffffffff16815260200190815260200160002054612ac49092919063ffffffff16565b6001600084815260200190815260200160002060008b73ffffffffffffffffffffffffffffffffffffffff1673ffffffffffffffffffffffffffffffffffffffff16815260200190815260200160002081905550611958816001600085815260200190815260200160002060008b73ffffffffffffffffffffffffffffffffffffffff1673ffffffffffffffffffffffffffffffffffffffff16815260200190815260200160002054612b7e90919063ffffffff16565b6001600084815260200190815260200160002060008a73ffffffffffffffffffffffffffffffffffffffff1673ffffffffffffffffffffffffffffffffffffffff1681526020019081526020016000208190555050508060010190506117eb565b508473ffffffffffffffffffffffffffffffffffffffff168673ffffffffffffffffffffffffffffffffffffffff168273ffffffffffffffffffffffffffffffffffffffff167f4a39dc06d4c0dbc64b70af90fd698a233a518aa5d07e595d983b8c0526c8f7fb8787604051808060200180602001838103835285818151815260200191508051906020019060200280838360005b83811015611a69578082015181840152602081019050611a4e565b50505050905001838103825284818151815260200191508051906020019060200280838360005b83811015611aab578082015181840152602081019050611a90565b5050505090500194505050505060405180910390a4611ace818787878787612c06565b505050505050565b611afd6004600084815260200190815260200160002060020154611af8612ab4565b611eb4565b611b52576040517f08c379a000000000000000000000000000000000000000000000000000000000815260040180806020018281038252602f815260200180613ecd602f913960400191505060405180910390fd5b611b5c8282612fcd565b5050565b611b68612ab4565b73ffffffffffffffffffffffffffffffffffffffff168173ffffffffffffffffffffffffffffffffffffffff1614611beb576040517f08c379a000000000000000000000000000000000000000000000000000000000815260040180806020018281038252602f8152602001806140e3602f913960400191505060405180910390fd5b611bf58282613061565b5050565b60608151835114611c55576040517f08c379a00000000000000000000000000000000000000000000000000000000081526004018080602001828103825260298152602001806140716029913960400191505060405180910390fd5b6060835167ffffffffffffffff81118015611c6f57600080fd5b50604051908082528060200260200182016040528015611c9e5781602001602082028036833780820191505090505b50905060005b8451811015611d0057611cdd858281518110611cbc57fe5b6020026020010151858381518110611cd057fe5b6020026020010151611264565b828281518110611ce957fe5b602002602001018181525050806001019050611ca4565b508091505092915050565b611d19600060010233611eb4565b611d8b576040517f08c379a00000000000000000000000000000000000000000000000000000000081526004018080602001828103825260208152602001807f4f776e61626c653a2063616c6c6572206973206e6f7420746865206f776e657281525060200191505060405180910390fd5b611d996000600102826130f5565b611da7600060010233611b60565b50565b7ff1b411d6abb365480ac902cc153c45e9ded5847a2265ce6d01945d253edb6bc781565b611ddc600060010233611eb4565b611e4e576040517f08c379a00000000000000000000000000000000000000000000000000000000081526004018080602001828103825260208152602001807f4f776e61626c653a2063616c6c6572206973206e6f7420746865206f776e657281525060200191505060405180910390fd5b611e59838383613103565b505050565b7fa49807205ce4d355092ef5a8a18f56e8913cf4a201fbe287825b095693c2177581565b6000611eac826004600086815260200190815260200160002060000161343e90919063ffffffff16565b905092915050565b6000611ede826004600086815260200190815260200160002060000161345990919063ffffffff16565b905092915050565b606060068054600181600116156101000203166002900480601f016020809104026020016040519081016040528092919081815260200182805460018160011615610100020316600290048015611f7e5780601f10611f5357610100808354040283529160200191611f7e565b820191906000526020600020905b815481529060010190602001808311611f6157829003601f168201915b5050505050905090565b600060010281565b8173ffffffffffffffffffffffffffffffffffffffff16611faf612ab4565b73ffffffffffffffffffffffffffffffffffffffff16141561201c576040517f08c379a00000000000000000000000000000000000000000000000000000000081526004018080602001828103825260298152602001806140486029913960400191505060405180910390fd5b8060026000612029612ab4565b73ffffffffffffffffffffffffffffffffffffffff1673ffffffffffffffffffffffffffffffffffffffff16815260200190815260200160002060008473ffffffffffffffffffffffffffffffffffffffff1673ffffffffffffffffffffffffffffffffffffffff16815260200190815260200160002060006101000a81548160ff0219169083151502179055508173ffffffffffffffffffffffffffffffffffffffff166120d6612ab4565b73ffffffffffffffffffffffffffffffffffffffff167f17307eab39ab6107e8899845ad3d59bd9653f200f220920489ca2b5937696c318360405180821515815260200191505060405180910390a35050565b600061214960046000848152602001908152602001600020600001613489565b9050919050565b6121776004600084815260200190815260200160002060020154612172612ab4565b611eb4565b6121cc576040517f08c379a0000000000000000000000000000000000000000000000000000000008152600401808060200182810382526030815260200180613f746030913960400191505060405180910390fd5b6121d68282613061565b5050565b6000600260008473ffffffffffffffffffffffffffffffffffffffff1673ffffffffffffffffffffffffffffffffffffffff16815260200190815260200160002060008373ffffffffffffffffffffffffffffffffffffffff1673ffffffffffffffffffffffffffffffffffffffff16815260200190815260200160002060009054906101000a900460ff16905092915050565b600073ffffffffffffffffffffffffffffffffffffffff168473ffffffffffffffffffffffffffffffffffffffff1614156122f4576040517f08c379a0000000000000000000000000000000000000000000000000000000008152600401808060200182810382526025815260200180613fa46025913960400191505060405180910390fd5b6122fc612ab4565b73ffffffffffffffffffffffffffffffffffffffff168573ffffffffffffffffffffffffffffffffffffffff16148061234257506123418561233c612ab4565b6121da565b5b612397576040517f08c379a0000000000000000000000000000000000000000000000000000000008152600401808060200182810382526029815260200180613f4b6029913960400191505060405180910390fd5b60006123a1612ab4565b90506123c18187876123b28861349e565b6123bb8861349e565b87612abc565b61243e836040518060600160405280602a815260200161401e602a91396001600088815260200190815260200160002060008a73ffffffffffffffffffffffffffffffffffffffff1673ffffffffffffffffffffffffffffffffffffffff16815260200190815260200160002054612ac49092919063ffffffff16565b6001600086815260200190815260200160002060008873ffffffffffffffffffffffffffffffffffffffff1673ffffffffffffffffffffffffffffffffffffffff168152602001908152602001600020819055506124f5836001600087815260200190815260200160002060008873ffffffffffffffffffffffffffffffffffffffff1673ffffffffffffffffffffffffffffffffffffffff16815260200190815260200160002054612b7e90919063ffffffff16565b6001600086815260200190815260200160002060008773ffffffffffffffffffffffffffffffffffffffff1673ffffffffffffffffffffffffffffffffffffffff168152602001908152602001600020819055508473ffffffffffffffffffffffffffffffffffffffff168673ffffffffffffffffffffffffffffffffffffffff168273ffffffffffffffffffffffffffffffffffffffff167fc3d58168c5ae7397731d063d5bbf3d657854427343f4c083240f7aacaa2d0f628787604051808381526020018281526020019250505060405180910390a46125db81878787878761350e565b505050505050565b6125f1600060010233611eb4565b612663576040517f08c379a00000000000000000000000000000000000000000000000000000000081526004018080602001828103825260208152602001807f4f776e61626c653a2063616c6c6572206973206e6f7420746865206f776e657281525060200191505060405180910390fd5b8160059080519060200190612679929190613cc1565b508060069080519060200190612690929190613cc1565b505050565b61269d612ab4565b73ffffffffffffffffffffffffffffffffffffffff168373ffffffffffffffffffffffffffffffffffffffff1614806126e357506126e2836126dd612ab4565b6121da565b5b612738576040517f08c379a0000000000000000000000000000000000000000000000000000000008152600401808060200182810382526029815260200180613f4b6029913960400191505060405180910390fd5b612743838383613853565b505050565b6000612770836000018373ffffffffffffffffffffffffffffffffffffffff16600102613a6f565b905092915050565b806003908051906020019061278e929190613cc1565b5050565b600073ffffffffffffffffffffffffffffffffffffffff168473ffffffffffffffffffffffffffffffffffffffff161415612818576040517f08c379a00000000000000000000000000000000000000000000000000000000081526004018080602001828103825260218152602001806140c26021913960400191505060405180910390fd5b8151835114612872576040517f08c379a000000000000000000000000000000000000000000000000000000000815260040180806020018281038252602881526020018061409a6028913960400191505060405180910390fd5b600061287c612ab4565b905061288d81600087878787612abc565b60005b845181101561299657612922600160008784815181106128ac57fe5b6020026020010151815260200190815260200160002060008873ffffffffffffffffffffffffffffffffffffffff1673ffffffffffffffffffffffffffffffffffffffff1681526020019081526020016000205485838151811061290c57fe5b6020026020010151612b7e90919063ffffffff16565b6001600087848151811061293257fe5b6020026020010151815260200190815260200160002060008873ffffffffffffffffffffffffffffffffffffffff1673ffffffffffffffffffffffffffffffffffffffff168152602001908152602001600020819055508080600101915050612890565b508473ffffffffffffffffffffffffffffffffffffffff16600073ffffffffffffffffffffffffffffffffffffffff168273ffffffffffffffffffffffffffffffffffffffff167f4a39dc06d4c0dbc64b70af90fd698a233a518aa5d07e595d983b8c0526c8f7fb8787604051808060200180602001838103835285818151815260200191508051906020019060200280838360005b83811015612a47578082015181840152602081019050612a2c565b50505050905001838103825284818151815260200191508051906020019060200280838360005b83811015612a89578082015181840152602081019050612a6e565b5050505090500194505050505060405180910390a4612aad81600087878787612c06565b5050505050565b600033905090565b505050505050565b6000838311158290612b71576040517f08c379a00000000000000000000000000000000000000000000000000000000081526004018080602001828103825283818151815260200191508051906020019080838360005b83811015612b36578082015181840152602081019050612b1b565b50505050905090810190601f168015612b635780820380516001836020036101000a031916815260200191505b509250505060405180910390fd5b5082840390509392505050565b600080828401905083811015612bfc576040517f08c379a000000000000000000000000000000000000000000000000000000000815260040180806020018281038252601b8152602001807f536166654d6174683a206164646974696f6e206f766572666c6f77000000000081525060200191505060405180910390fd5b8091505092915050565b612c258473ffffffffffffffffffffffffffffffffffffffff16613adf565b15612fc5578373ffffffffffffffffffffffffffffffffffffffff1663bc197c8187878686866040518663ffffffff167c0100000000000000000000000000000000000000000000000000000000028152600401808673ffffffffffffffffffffffffffffffffffffffff1681526020018573ffffffffffffffffffffffffffffffffffffffff168152602001806020018060200180602001848103845287818151815260200191508051906020019060200280838360005b83811015612cf9578082015181840152602081019050612cde565b50505050905001848103835286818151815260200191508051906020019060200280838360005b83811015612d3b578082015181840152602081019050612d20565b50505050905001848103825285818151815260200191508051906020019080838360005b83811015612d7a578082015181840152602081019050612d5f565b50505050905090810190601f168015612da75780820380516001836020036101000a031916815260200191505b5098505050505050505050602060405180830381600087803b158015612dcc57600080fd5b505af1925050508015612e0057506040513d6020811015612dec57600080fd5b810190808051906020019092919050505060015b612f0a57612e0c613d98565b80612e175750612eb9565b806040517f08c379a00000000000000000000000000000000000000000000000000000000081526004018080602001828103825283818151815260200191508051906020019080838360005b83811015612e7e578082015181840152602081019050612e63565b50505050905090810190601f168015612eab5780820380516001836020036101000a031916815260200191505b509250505060405180910390fd5b6040517f08c379a0000000000000000000000000000000000000000000000000000000008152600401808060200182810382526034815260200180613e4f6034913960400191505060405180910390fd5b63bc197c817c0100000000000000000000000000000000000000000000000000000000027bffffffffffffffffffffffffffffffffffffffffffffffffffffffff1916817bffffffffffffffffffffffffffffffffffffffffffffffffffffffff191614612fc3576040517f08c379a0000000000000000000000000000000000000000000000000000000008152600401808060200182810382526028815260200180613ea56028913960400191505060405180910390fd5b505b505050505050565b612ff5816004600085815260200190815260200160002060000161274890919063ffffffff16565b1561305d57613002612ab4565b73ffffffffffffffffffffffffffffffffffffffff168173ffffffffffffffffffffffffffffffffffffffff16837f2f8788117e7eff1d82e926ec794901d17c78024a50270940304540a733656f0d60405160405180910390a45b5050565b6130898160046000858152602001908152602001600020600001613af290919063ffffffff16565b156130f157613096612ab4565b73ffffffffffffffffffffffffffffffffffffffff168173ffffffffffffffffffffffffffffffffffffffff16837ff6391f5c32d9c69d2a47ea670b442974b53935d1edc7fd64eb21e047a839171b60405160405180910390a45b5050565b6130ff8282612fcd565b5050565b600073ffffffffffffffffffffffffffffffffffffffff168373ffffffffffffffffffffffffffffffffffffffff161415613189576040517f08c379a0000000000000000000000000000000000000000000000000000000008152600401808060200182810382526023815260200180613ffb6023913960400191505060405180910390fd5b80518251146131e3576040517f08c379a000000000000000000000000000000000000000000000000000000000815260040180806020018281038252602881526020018061409a6028913960400191505060405180910390fd5b60006131ed612ab4565b905061320d81856000868660405180602001604052806000815250612abc565b60005b8351811015613330576132bc83828151811061322857fe5b6020026020010151604051806060016040528060248152602001613f27602491396001600088868151811061325957fe5b6020026020010151815260200190815260200160002060008973ffffffffffffffffffffffffffffffffffffffff1673ffffffffffffffffffffffffffffffffffffffff16815260200190815260200160002054612ac49092919063ffffffff16565b600160008684815181106132cc57fe5b6020026020010151815260200190815260200160002060008773ffffffffffffffffffffffffffffffffffffffff1673ffffffffffffffffffffffffffffffffffffffff168152602001908152602001600020819055508080600101915050613210565b50600073ffffffffffffffffffffffffffffffffffffffff168473ffffffffffffffffffffffffffffffffffffffff168273ffffffffffffffffffffffffffffffffffffffff167f4a39dc06d4c0dbc64b70af90fd698a233a518aa5d07e595d983b8c0526c8f7fb8686604051808060200180602001838103835285818151815260200191508051906020019060200280838360005b838110156133e15780820151818401526020810190506133c6565b50505050905001838103825284818151815260200191508051906020019060200280838360005b83811015613423578082015181840152602081019050613408565b5050505090500194505050505060405180910390a450505050565b600061344d8360000183613b22565b60019004905092915050565b6000613481836000018373ffffffffffffffffffffffffffffffffffffffff16600102613ba5565b905092915050565b600061349782600001613bc8565b9050919050565b606080600167ffffffffffffffff811180156134b957600080fd5b506040519080825280602002602001820160405280156134e85781602001602082028036833780820191505090505b50905082816000815181106134f957fe5b60200260200101818152505080915050919050565b61352d8473ffffffffffffffffffffffffffffffffffffffff16613adf565b1561384b578373ffffffffffffffffffffffffffffffffffffffff1663f23a6e6187878686866040518663ffffffff167c0100000000000000000000000000000000000000000000000000000000028152600401808673ffffffffffffffffffffffffffffffffffffffff1681526020018573ffffffffffffffffffffffffffffffffffffffff16815260200184815260200183815260200180602001828103825283818151815260200191508051906020019080838360005b838110156136025780820151818401526020810190506135e7565b50505050905090810190601f16801561362f5780820380516001836020036101000a031916815260200191505b509650505050505050602060405180830381600087803b15801561365257600080fd5b505af192505050801561368657506040513d602081101561367257600080fd5b810190808051906020019092919050505060015b61379057613692613d98565b8061369d575061373f565b806040517f08c379a00000000000000000000000000000000000000000000000000000000081526004018080602001828103825283818151815260200191508051906020019080838360005b838110156137045780820151818401526020810190506136e9565b50505050905090810190601f1680156137315780820380516001836020036101000a031916815260200191505b509250505060405180910390fd5b6040517f08c379a0000000000000000000000000000000000000000000000000000000008152600401808060200182810382526034815260200180613e4f6034913960400191505060405180910390fd5b63f23a6e617c0100000000000000000000000000000000000000000000000000000000027bffffffffffffffffffffffffffffffffffffffffffffffffffffffff1916817bffffffffffffffffffffffffffffffffffffffffffffffffffffffff191614613849576040517f08c379a0000000000000000000000000000000000000000000000000000000008152600401808060200182810382526028815260200180613ea56028913960400191505060405180910390fd5b505b505050505050565b600073ffffffffffffffffffffffffffffffffffffffff168373ffffffffffffffffffffffffffffffffffffffff1614156138d9576040517f08c379a0000000000000000000000000000000000000000000000000000000008152600401808060200182810382526023815260200180613ffb6023913960400191505060405180910390fd5b60006138e3612ab4565b9050613913818560006138f58761349e565b6138fe8761349e565b60405180602001604052806000815250612abc565b61399082604051806060016040528060248152602001613f27602491396001600087815260200190815260200160002060008873ffffffffffffffffffffffffffffffffffffffff1673ffffffffffffffffffffffffffffffffffffffff16815260200190815260200160002054612ac49092919063ffffffff16565b6001600085815260200190815260200160002060008673ffffffffffffffffffffffffffffffffffffffff1673ffffffffffffffffffffffffffffffffffffffff16815260200190815260200160002081905550600073ffffffffffffffffffffffffffffffffffffffff168473ffffffffffffffffffffffffffffffffffffffff168273ffffffffffffffffffffffffffffffffffffffff167fc3d58168c5ae7397731d063d5bbf3d657854427343f4c083240f7aacaa2d0f628686604051808381526020018281526020019250505060405180910390a450505050565b6000613a7b8383613ba5565b613ad4578260000182908060018154018082558091505060019003906000526020600020016000909190919091505582600001805490508360010160008481526020019081526020016000208190555060019050613ad9565b600090505b92915050565b600080823b905060008111915050919050565b6000613b1a836000018373ffffffffffffffffffffffffffffffffffffffff16600102613bd9565b905092915050565b600081836000018054905011613b83576040517f08c379a0000000000000000000000000000000000000000000000000000000008152600401808060200182810382526022815260200180613e836022913960400191505060405180910390fd5b826000018281548110613b9257fe5b9060005260206000200154905092915050565b600080836001016000848152602001908152602001600020541415905092915050565b600081600001805490509050919050565b60008083600101600084815260200190815260200160002054905060008114613cb55760006001820390506000600186600001805490500390506000866000018281548110613c2457fe5b9060005260206000200154905080876000018481548110613c4157fe5b9060005260206000200181905550600183018760010160008381526020019081526020016000208190555086600001805480613c7957fe5b60019003818190600052602060002001600090559055866001016000878152602001908152602001600020600090556001945050505050613cbb565b60009150505b92915050565b828054600181600116156101000203166002900490600052602060002090601f016020900481019282601f10613d0257805160ff1916838001178555613d30565b82800160010185558215613d30579182015b82811115613d2f578251825591602001919060010190613d14565b5b509050613d3d9190613d41565b5090565b5b80821115613d5a576000816000905550600101613d42565b5090565b6000601f19601f8301169050919050565b60007c010000000000000000000000000000000000000000000000000000000082049050919050565b600060443d1015613da857613e4b565b60046000803e613db9600051613d6f565b6308c379a08114613dca5750613e4b565b60405160043d036004823e80513d602482011167ffffffffffffffff82111715613df657505050613e4b565b808201805167ffffffffffffffff811115613e15575050505050613e4b565b8060208301013d8501811115613e3057505050505050613e4b565b613e3982613d5e565b60208401016040528296505050505050505b9056fe455243313135353a207472616e7366657220746f206e6f6e2045524331313535526563656976657220696d706c656d656e746572456e756d657261626c655365743a20696e646578206f7574206f6620626f756e6473455243313135353a204552433131353552656365697665722072656a656374656420746f6b656e73416363657373436f6e74726f6c3a2073656e646572206d75737420626520616e2061646d696e20746f206772616e74455243313135353a2062616c616e636520717565727920666f7220746865207a65726f2061646472657373455243313135353a206275726e20616d6f756e7420657863656564732062616c616e6365455243313135353a2063616c6c6572206973206e6f74206f776e6572206e6f7220617070726f766564416363657373436f6e74726f6c3a2073656e646572206d75737420626520616e2061646d696e20746f207265766f6b65455243313135353a207472616e7366657220746f20746865207a65726f2061646472657373455243313135353a207472616e736665722063616c6c6572206973206e6f74206f776e6572206e6f7220617070726f766564455243313135353a206275726e2066726f6d20746865207a65726f2061646472657373455243313135353a20696e73756666696369656e742062616c616e636520666f72207472616e73666572455243313135353a2073657474696e6720617070726f76616c2073746174757320666f722073656c66455243313135353a206163636f756e747320616e6420696473206c656e677468206d69736d61746368455243313135353a2069647320616e6420616d6f756e7473206c656e677468206d69736d61746368455243313135353a206d696e7420746f20746865207a65726f2061646472657373416363657373436f6e74726f6c3a2063616e206f6e6c792072656e6f756e636520726f6c657320666f722073656c66a2646970667358221220e59643f342a49101eae94b17027bb30e0815d7a7d09f5be3df510ad46f0604a764736f6c634300060c0033",
  "immutableReferences": {},
  "source": "// SPDX-License-Identifier: MIT\n\npragma solidity = 0.6.12;\n\n\nimport \"@openzeppelin/contracts/access/AccessControl.sol\";\nimport \"@openzeppelin/contracts/token/ERC1155/ERC1155Burnable.sol\";\n\n\n/**\n *\n * @notice this is the template for all ERC1155 contract\n *\n */\ncontract WrappedErc1155 is ERC1155Burnable, AccessControl {\n    /**\n     * @dev Sets the values for {name} and {symbol}.\n     *\n     */\n\n    bytes32 public constant ADMIN_ROLE = keccak256(\"ADMIN_ROLE\");\n    bytes32 public constant WORKER_ROLE = keccak256(\"WORKER_ROLE\");\n\n    // supprt name/symbol\n    string private _name;\n    string private _symbol;\n\n    constructor(\n        string memory name_,\n        string memory symbol_,\n        string memory baseUri_,\n        address  owner_,\n        address  admin_,\n        address  worker_\n    ) public ERC1155(baseUri_) {\n        _name = name_;\n        _symbol = symbol_;\n\n        _setupRole(DEFAULT_ADMIN_ROLE, owner_);\n        _setupRole(ADMIN_ROLE, admin_);\n        _setupRole(WORKER_ROLE, worker_);\n\n        _setRoleAdmin(WORKER_ROLE, ADMIN_ROLE);\n    }\n\n    /**\n     * ============================================================================\n     * ROLE check\n     * ============================================================================\n     */\n\n    /**\n     * @dev Throws if called by any account other than the owner.\n     */\n    modifier onlyOwner() {\n        require(hasRole(DEFAULT_ADMIN_ROLE,  msg.sender), \"Ownable: caller is not the owner\");\n        _;\n    }\n\n    /**\n     * @dev Throws if called by any account other than the owner.\n     */\n    modifier onlyWorker() {\n        require(hasRole(WORKER_ROLE,  msg.sender), \"Ownable: caller is not the owner\");\n        _;\n    }\n\n    /**\n     * @dev for framework\n     */\n    function name() public view returns (string memory) {\n        return _name;\n    }\n\n    /**\n     * @dev only for framework\n     */\n    function symbol() public view returns (string memory) {\n        return _symbol;\n    }\n\n    /// @notice update token name, symbol\n    /// @dev update token name, symbol\n    /// @param name_ token new name\n    /// @param symbol_ token new symbol\n    function update(string memory name_, string memory symbol_)\n    external\n    onlyOwner\n    {\n        _name = name_;\n        _symbol = symbol_;\n    }\n\n    // \n    function setURI(string memory newuri_) onlyWorker external {\n        _setURI(newuri_);\n    }\n\n    function transferOwner(address newOwner_) public onlyOwner {\n        _setupRole(DEFAULT_ADMIN_ROLE, newOwner_);\n        renounceRole(DEFAULT_ADMIN_ROLE, msg.sender);\n    }\n\n    /// @notice Create token\n    /// @dev  Creates `amount` tokens of token type `id`, and assigns them to `account`.\n    /// @param account_ Address will receive token\n    /// @param tokenID_ ID of token to be minted\n    /// @param amount_  token amount\n    /// @param data_    data\n    function mintBatch(address account_, uint256[] memory tokenID_, uint256[] memory amount_, bytes memory data_)\n    external\n    onlyOwner\n    {\n        _mintBatch(account_, tokenID_, amount_, data_);\n    }\n\n    /// @notice Create token\n    /// @dev  Creates `amount` tokens of token type `id`, and assigns them to `account`.\n    /// @param account_ Address will receive token\n    /// @param tokenID_ ID of token to be minted\n    /// @param amount_  amount\n    function burnBatch(address account_, uint256[] memory tokenID_, uint256[] memory amount_) \n    public\n    override \n    onlyOwner {\n        _burnBatch(account_, tokenID_, amount_);\n    }\n}\n",
  "sourcePath": "F:\\Code\\NFT_CrossChain_20220707\\mapping-token-v2\\contracts\\token\\WrappedErc1155.sol",
  "compiler": {
    "name": "solc",
    "version": "0.6.12+commit.27d51765.Emscripten.clang"
  },
  "schemaVersion": "3.4.8",
  "updatedAt": "2022-08-26T03:43:54.223Z",
  "devdoc": {
    "kind": "dev",
    "methods": {
      "balanceOf(address,uint256)": {
        "details": "See {IERC1155-balanceOf}. Requirements: - `account` cannot be the zero address."
      },
      "balanceOfBatch(address[],uint256[])": {
        "details": "See {IERC1155-balanceOfBatch}. Requirements: - `accounts` and `ids` must have the same length."
      },
      "burnBatch(address,uint256[],uint256[])": {
        "details": "Creates `amount` tokens of token type `id`, and assigns them to `account`.",
        "params": {
          "account_": "Address will receive token",
          "amount_": "amount",
          "tokenID_": "ID of token to be minted"
        }
      },
      "getRoleAdmin(bytes32)": {
        "details": "Returns the admin role that controls `role`. See {grantRole} and {revokeRole}. To change a role's admin, use {_setRoleAdmin}."
      },
      "getRoleMember(bytes32,uint256)": {
        "details": "Returns one of the accounts that have `role`. `index` must be a value between 0 and {getRoleMemberCount}, non-inclusive. Role bearers are not sorted in any particular way, and their ordering may change at any point. WARNING: When using {getRoleMember} and {getRoleMemberCount}, make sure you perform all queries on the same block. See the following https://forum.openzeppelin.com/t/iterating-over-elements-on-enumerableset-in-openzeppelin-contracts/2296[forum post] for more information."
      },
      "getRoleMemberCount(bytes32)": {
        "details": "Returns the number of accounts that have `role`. Can be used together with {getRoleMember} to enumerate all bearers of a role."
      },
      "grantRole(bytes32,address)": {
        "details": "Grants `role` to `account`. If `account` had not been already granted `role`, emits a {RoleGranted} event. Requirements: - the caller must have ``role``'s admin role."
      },
      "hasRole(bytes32,address)": {
        "details": "Returns `true` if `account` has been granted `role`."
      },
      "isApprovedForAll(address,address)": {
        "details": "See {IERC1155-isApprovedForAll}."
      },
      "mintBatch(address,uint256[],uint256[],bytes)": {
        "details": "Creates `amount` tokens of token type `id`, and assigns them to `account`.",
        "params": {
          "account_": "Address will receive token",
          "amount_": "token amount",
          "data_": "data",
          "tokenID_": "ID of token to be minted"
        }
      },
      "name()": {
        "details": "for framework"
      },
      "renounceRole(bytes32,address)": {
        "details": "Revokes `role` from the calling account. Roles are often managed via {grantRole} and {revokeRole}: this function's purpose is to provide a mechanism for accounts to lose their privileges if they are compromised (such as when a trusted device is misplaced). If the calling account had been granted `role`, emits a {RoleRevoked} event. Requirements: - the caller must be `account`."
      },
      "revokeRole(bytes32,address)": {
        "details": "Revokes `role` from `account`. If `account` had been granted `role`, emits a {RoleRevoked} event. Requirements: - the caller must have ``role``'s admin role."
      },
      "safeBatchTransferFrom(address,address,uint256[],uint256[],bytes)": {
        "details": "See {IERC1155-safeBatchTransferFrom}."
      },
      "safeTransferFrom(address,address,uint256,uint256,bytes)": {
        "details": "See {IERC1155-safeTransferFrom}."
      },
      "setApprovalForAll(address,bool)": {
        "details": "See {IERC1155-setApprovalForAll}."
      },
      "supportsInterface(bytes4)": {
        "details": "See {IERC165-supportsInterface}. Time complexity O(1), guaranteed to always use less than 30 000 gas."
      },
      "symbol()": {
        "details": "only for framework"
      },
      "update(string,string)": {
        "details": "update token name, symbol",
        "params": {
          "name_": "token new name",
          "symbol_": "token new symbol"
        }
      },
      "uri(uint256)": {
        "details": "See {IERC1155MetadataURI-uri}. This implementation returns the same URI for *all* token types. It relies on the token type ID substitution mechanism https://eips.ethereum.org/EIPS/eip-1155#metadata[defined in the EIP]. Clients calling this function must replace the `\\{id\\}` substring with the actual token type ID."
      }
    },
    "stateVariables": {
      "ADMIN_ROLE": {
        "details": "Sets the values for {name} and {symbol}."
      }
    },
    "version": 1
  },
  "userdoc": {
    "kind": "user",
    "methods": {
      "burnBatch(address,uint256[],uint256[])": {
        "notice": "Create token"
      },
      "mintBatch(address,uint256[],uint256[],bytes)": {
        "notice": "Create token"
      },
      "update(string,string)": {
        "notice": "update token name, symbol"
      }
    },
    "notice": "this is the template for all ERC1155 contract",
    "version": 1
  }
}